S00B00004144432E7372656351
S11300000C9434000C9451000C9451000C94510045
S11300100C9451000C9451000C9451000C94510018
S11300200C9451000C9451000C9451000C94510008
S11300300C9451000C9451000C9451000C945100F8
S11300400C9451000C9451000C94A2000C94510097
S11300500C9451000C9451000C9451000C945100D8
S11300600C9451000C94510011241FBECFEFD8E022
S1130070DEBFCDBF11E0A0E0B1E0ECE5F8E002C0E6
S113008005900D92AE30B107D9F721E0AEE0B1E0B2
S113009001C01D92A133B207E1F70E94FC000C9449
S11300A02C040C9400009093C5008093C40088E94C
S11300B08093C10086E08093C2000895E0ECF0E0F4
S11300C0908195FFFDCF8093C6000895CF93DF9371
S11300D0EC018881882331F021960E945E00899189
S11300E08111FBCFDF91CF9108950F931F93CF938D
S11300F0DF93CDB7DEB764970FB6F894DEBF0FBEBB
S1130100CDBF9F938F9382E091E09F938F938E0155
S11301100F5F1F4F1F930F930E944201C8010E945B
S113012066000F900F900F900F900F900F906496B1
S11301300FB6F894DEBF0FBECDBFDF91CF911F91F4
S11301400F9108951F920F920FB60F9211242F93BF
S11301504F935F938F939F93EF93FF932091C600E8
S11301602093300140910E0150910F0180910001C4
S1130170909101014817590721F410920F01109230
S11301800E0180910E0190910F01FC01E05FFE4F82
S11301902083019690930F0180930E01FF91EF91BC
S11301A09F918F915F914F912F910F900FBE0F9060
S11301B01F90189580E480937C0084E880937A00F3
S11301C0089580937E00ECE7F0E09081907F8F703B
S11301D0892B8083EAE7F0E08081806480838081DA
S11301E086FDFDCFEAE7F0E0808180618083809125
S11301F0780090917900089580E190E00E94530086
S11302000E94DA0080E00E94E1000E94750088E00C
S113021091E00E94660081E00E94E1000E94750066
S113022088E091E00E94660082E00E94E1000E9462
S1130230750088E091E00E94660083E00E94E1007E
S11302400E94750088E091E00E94660084E00E94AC
S1130250E1000E94750088E091E00E94660085E05C
S11302600E94E1000E9475008AE091E00E9466000D
S11302702FEF81EE94E0215080409040E1F700C0E0
S11302800000C0CFAEE0B0E0E8E4F1E00C94030479
S11302900D891E8986E08C831A8309838FEF9FE77B
S11302A09E838D83AE01475E5F4F6F89788DCE014B
S11302B001960E946401EF81F885E00FF11F10821E
S11302C02E96E4E00C941F04ABE0B0E0EAE6F1E023
S11302D00C94F5036C017B018A01FC0117821682E0
S11302E0838181FFCCC1CE0101963C01F60193814B
S11302F0F70193FD859193FF81917F01882309F490
S1130300BAC1853239F493FD859193FF81917F01C0
S1130310853229F4B60190E00E945B03E7CF912C6B
S1130320212C312CFFE1F315D8F08B3279F038F41D
S1130330803279F08332A1F4232D20611DC08D32E7
S113034061F0803369F4232D216016C0832D82600F
S1130350382EE32DE4603E2E2AC0F32DF8601DC034
S113036037FC2DC020ED280F2A3040F08E32B9F42E
S113037036FC81C1232D2064322E19C036FE06C0FE
S11303808AE0989E200D1124922E11C0EAE02E9E40
S1130390200D1124222EF32DF0623F2E08C08C363E
S11303A021F4832D8068382E02C0883641F4F70189
S11303B093FD859193FF81917F018111B3CF982F94
S11303C09F7D9554933028F40C5F1F4F9FE39983CE
S11303D00DC0833631F0833771F0833509F059C08D
S11303E021C0F801808189830E5F1F4F8824839484
S11303F0912C530113C02801F2E04F0E511CF80157
S1130400A080B18036FE03C0692D70E002C06FEF9A
S11304107FEFC5010E9450034C018201F32DFF7749
S11304203F2E16C0280122E0420E511CF801A08084
S1130430B18036FE03C0692D70E002C06FEF7FEF1C
S1130440C5010E9445034C01F32DF0683F2E820143
S113045033FC1BC0822D90E088169906B0F4B601D7
S113046080E290E00E945B032A94F4CFF50137FC0C
S1130470859137FE81915F01B60190E00E945B0394
S113048021102A9421E0821A91088114910471F7B1
S1130490E8C0843611F0893641F5F80137FE07C00B
S11304A060817181828193810C5F1F4F08C06081DC
S11304B07181072E000C880B990B0E5F1F4FF32DD3
S11304C0FF763F2E97FF09C09095809570956195B2
S11304D07F4F8F4F9F4FF0683F2E2AE030E0A301FB
S11304E00E949703882E861845C0853731F4232D42
S11304F02F7EB22E2AE030E025C0932D997FB92EAD
S11305008F36C1F018F4883579F0B5C0803719F00A
S1130510883721F0B0C0E92FE061BE2EB4FE0DC0D3
S1130520FB2DF460BF2E09C034FE0AC0292F2660BB
S1130530B22E06C028E030E005C020E130E002C061
S113054020E132E0F801B7FE07C060817181828149
S113055093810C5F1F4F06C06081718180E090E041
S11305600E5F1F4FA3010E949703882E8618FB2D50
S1130570FF773F2E36FE0DC0232D2E7FA22E891429
S113058058F434FE0BC032FC09C0832D8E7EA82E95
S113059005C0B82CA32C03C0B82C01C0B92CA4FEF0
S11305A00FC0FE01E80DF11D8081803321F49A2DE6
S11305B0997EA92E09C0A2FE06C0B394B39404C0C8
S11305C08A2D867809F0B394A3FC11C0A0FE06C05E
S11305D0B21488F4280C922C9B180EC0B21460F448
S11305E0B60180E290E00E945B03B394F7CFB214AB
S11305F018F42B1802C0982C212CA4FE10C0B601AC
S113060080E390E00E945B03A2FE17C0A1FC03C03C
S113061088E790E002C088E590E0B6010CC08A2D1E
S1130620867859F0A1FE02C08BE201C080E2A7FCEB
S11306308DE2B60190E00E945B03891438F4B601A0
S113064080E390E00E945B039A94F7CF8A94F301CD
S1130650E80DF11D8081B60190E00E945B038110DA
S1130660F5CF222009F442CEB60180E290E00E9448
S11306705B032A94F6CFF6018681978102C08FEF3F
S11306809FEF2B96E2E10C941104FC01059061505C
S113069070400110D8F7809590958E0F9F1F089594
S11306A0FC016150704001900110D8F7809590953D
S11306B08E0F9F1F08950F931F93CF93DF93FB011A
S11306C0238121FD03C08FEF9FEF2CC022FF16C0B2
S11306D046815781248135814217530744F4A08110
S11306E0B1819D012F5F3F4F318320838C932681FD
S11306F037812F5F3F4F3783268314C08B01EC0172
S1130700FB010084F185E02D0995892BE1F6D801E0
S113071016968D919C911797019617969C938E939C
S11307201697CE01DF91CF911F910F910895FA0191
S1130730AA27283051F1203181F1E8946F936E7F1C
S11307406E5F7F4F8F4F9F4FAF4FB1E03ED0B4E00D
S11307503CD0670F781F891F9A1FA11D680F791F4E
S11307608A1F911DA11D6A0F711D811D911DA11D5F
S113077020D009F468943F912AE0269F112430196F
S1130780305D3193DEF6CF010895462F4770405D0A
S11307904193B3E00FD0C9F7F6CF462F4F70405DB9
S11307A04A3318F0495D31FD4052419302D0A9F714
S11307B0EACFB4E0A6959795879577956795BA950E
S11307C0C9F700976105710508959B01AC010A2ED4
S11307D006945795479537952795BA95C9F7620FAB
S11307E0731F841F951FA01D08952F923F924F924F
S11307F05F926F927F928F929F92AF92BF92CF92AD
S1130800DF92EF92FF920F931F93CF93DF93CDB7B5
S1130810DEB7CA1BDB0B0FB6F894DEBF0FBECDBF2D
S113082009942A88398848885F846E847D848C84FE
S11308309B84AA84B984C884DF80EE80FD800C8107
S11308401B81AA81B981CE0FD11D0FB6F894DEBFEA
S10F08500FBECDBFED010895F894FFCF5A
S111085C20002564002566002000200A00000C
S9030000FC
