:100000000C9434000C9451000C9451000C94510049
:100010000C9451000C9451000C9451000C9451001C
:100020000C9451000C9451000C9451000C9451000C
:100030000C9451000C9451000C9451000C945100FC
:100040000C9451000C9451000C9475000C945100C8
:100050000C9451000C9451000C9451000C945100DC
:100060000C9451000C94510011241FBECFEFD8E026
:10007000DEBFCDBF11E0A0E0B1E0E2E8F1E002C0F8
:1000800005900D92A631B107D9F721E0A6E1B1E0C4
:1000900001C01D92A933B207E1F70E94AD000C9494
:1000A000BF000C9400009093C5008093C40088E9C1
:1000B0008093C10086E08093C2000895E0ECF0E0F8
:1000C000908195FFFDCF8093C6000895CF93DF9375
:1000D000EC018881882331F021960E945E0089918D
:1000E0008111FBCFDF91CF9108951F920F920FB630
:1000F0000F9211242F934F935F938F939F93EF93BE
:10010000FF932091C6002093380140911601509131
:10011000170180910001909101014817590721F4BE
:1001200010921701109216018091160190911701FB
:10013000FC01E85EFE4F20830196909317018093A7
:100140001601FF91EF919F918F915F914F912F91A8
:100150000F900FBE0F901F90189580E190E00E94C5
:10016000530088E091E00E9466002FEF83ED90E35A
:10017000215080409040E1F700C00000F2CFF89499
:02018000FFCFAF
:10018200200025640025660048656C6C6F20576F5F
:06019200726C64200A00FB
:00000001FF
