S00C0000455854492E73726563DE
S11300000C9434000C9419010C943F010C9451008D
S11300100C9451000C9451000C9451000C94510018
S11300200C9451000C9451000C9451000C94510008
S11300300C9451000C9451000C9451000C945100F8
S11300400C9451000C9451000C9475000C945100C4
S11300500C9451000C9451000C9451000C945100D8
S11300600C9451000C94510011241FBECFEFD8E022
S1130070DEBFCDBF11E0A0E0B1E0EEECF2E002C0E3
S113008005900D92A435B107D9F721E0A4E5B1E0BC
S113009001C01D92A737B207E1F70E9407010C9433
S11300A065010C9400009093C5008093C40088E916
S11300B08093C10086E08093C2000895E0ECF0E0F4
S11300C0908195FFFDCF8093C6000895CF93DF9371
S11300D0EC018881882331F021960E945E00899189
S11300E08111FBCFDF91CF9108951F920F920FB62C
S11300F00F9211242F934F935F938F939F93EF93BA
S1130100FF932091C60020937601409154015091B1
S1130110550180910001909101014817590721F47C
S113012010925501109254018091540190915501FF
S1130130FC01EA5AFE4F2083019690935501809367
S11301405401FF91EF919F918F915F914F912F9166
S11301500F900FBE0F901F9018958823A1F066236F
S113016049F0E9E6F0E080818160808380818D7FC1
S113017080831EC0E9E6F0E0808181608083808115
S11301808260808315C0662351F0E9E6F0E0808147
S11301908E7F80838081826080835A9A09C0E9E6D9
S11301A0F0E080818E7F808380818D7F80835A9A66
S11301B0E89A08958823A1F0662349F0E9E6F0E07F
S11301C08081846080838081877F80831EC0E9E68C
S11301D0F0E080818460808380818860808315C0A2
S11301E0662351F0E9E6F0E080818B7F8083808193
S11301F0886080835B9A09C0E9E6F0E080818B7FA8
S113020080838081877F80835B9AE99A08957894BC
S113021080E190E00E94530060E081E00E94AD0024
S113022061E080E00E94DA0088E091E00E946600CC
S1130230FFCF1F920F920FB60F9211242F933F936B
S11302404F935F936F937F938F939F93AF93BF93DA
S1130250EF93FF9384E291E00E946600FF91EF9197
S1130260BF91AF919F918F917F916F915F914F91CA
S11302703F912F910F900FBE0F901F9018951F92D2
S11302800F920FB60F9211242F933F934F935F93C6
S11302906F937F938F939F93AF93BF93EF93FF934A
S11302A08CE391E00E946600FF91EF91BF91AF91C2
S11302B09F918F917F916F915F914F913F912F917A
S11102C00F900FBE0F901F901895F894FFCF6B
S11302CE2000256400256600496E7465727275708F
S11302DE742054657374205265616479203E3E3EE9
S11302EE3E200A00496E7465727275707420302057
S11302FE747269676765726564200A00496E746575
S113030E72727570742031207472696767657265D4
S107031E64200A0049
S9030000FC
